:020000040800F2
:100000001807002049060008E5020008E70200087A
:10001000EB020008EF020008F302000800000000F5
:10002000000000000000000000000000F7020008CF
:10003000F902000800000000FB020008FD020008B1
:1000400063060008630600086306000863060008EC
:100050006306000863060008013200080333000845
:1000600007340008630600086306000863060008FA
:1000700063060008630600086306000863060008BC
:1000800063060008630600086306000863060008AC
:100090006306000863060008630600080B350008C5
:1000A000F52E0008792F0008733000086306000859
:1000B000630600086306000863060008630600087C
:1000C000630600086306000863060008630600086C
:1000D000630600089D230008630600086306000805
:1000E000630600086306000863060008630600084C
:1000F000630600086306000863060008630600083C
:10010000630600086306000863060008630600082B
:1001100063060008630600087B2D0008632E0008B4
:10012000630600086306000863060008630600080B
:1001300063060008630600086306000863060008FB
:1001400063060008630600086306000863060008EB
:1001500063060008630600086306000863060008DB
:1001600063060008630600086306000863060008CB
:1001700063060008630600086306000863060008BB
:1001800063060008630600086306000863060008AB
:10019000630600086306000863060008630600089B
:1001A00063060008630600086306000800F002F812
:1001B00000F03CF80AA090E8000C82448344AAF1C5
:1001C0000107DA4501D100F031F8AFF2090EBAE8C3
:1001D0000F0013F0010F18BFFB1A43F0010318477B
:1001E0004836000068360000103A24BF78C878C14D
:1001F000FAD8520724BF30C830C144BF04680C602D
:10020000704700000023002400250026103A28BF74
:1002100078C1FBD8520728BF30C148BF0B60704778
:100220001FB503F0FCFA1FBD10B510BD03F0BDFAF9
:100230001146FFF7F5FF00F008F803F0DBFA03B40E
:10024000FFF7F2FF03BC03F0E3FA482000F07AF96D
:10025000002001F086FD4FF4E05001F08CFD4FF4DA
:10026000E05001F092FD4FF4A06000F00DFA03F0B1
:10027000CDF903F0E0F902F05BFF02F06AF8022129
:10028000032002F039F809214FF47A7002F080FC63
:1002900009214FF47A7002F09BFC09214FF47A7027
:1002A00002F0B6FC09214FF47A7002F0D1FC09216A
:1002B0004FF47A7002F0ECFC0221002002F008FDFD
:1002C0000221002002F015FD0221002002F022FD93
:1002D0000221002002F02FFD0221002002F03CFD4F
:1002E00000BFFEE7704700BFFEE700BFFEE700BFAC
:1002F000FEE700BFFEE77047704770477047000099
:100300000CB50020019000908348006840F48030D4
:100310008149086000BF8048006800F40030009008
:100320000198401C0190009818B90198B0F5A04FB1
:10033000F1D17948006800F4003010B1012000903C
:1003400001E0002000900098012860D17248403000
:10035000006840F080507049403108606F48006884
:1003600040F440406D4908606B48083000686A49B5
:10037000083108600846006840F4004008600846FC
:10038000006840F4A05008606548091F0860081F15
:10039000006840F08070091F086000BF5E48006878
:1003A00000F000700028F9D05C48006840F480300C
:1003B0005A49086000BF5948406800F4803000285E
:1003C000F9D05648006840F400305449086000BF36
:1003D0005248406800F400300028F9D040F205701F
:1003E000504908604C480830006820F003004A4932
:1003F000083108600846006840F00200086000BF4D
:1004000045480830006800F00C000828F8D10CBD01
:1004100010B54548006840F47000434908603E4804
:10042000006840F001003C49086000203A4908316A
:100430000860394800683D490840374908603C4831
:10044000091D0860081F006820F48020091F08604B
:10045000002031490C310860FFF752FF4FF0006077
:1004600031498039086010BD70B500200022022398
:1004700000240221284D08352D6805F00C0020B11C
:10048000042806D0082834D107E02A4D2A4E3560CA
:1004900033E02A4D284E35602FE01F4D2D1D2D686D
:1004A000C5F380541C4D2D1D2D6805F03F0154B13E
:1004B000224DB5FBF1F5184E361D3668C6F3881689
:1004C00005FB06F209E01B4DB5FBF1F5124E361D9A
:1004D0003668C6F3881605FB06F20F4D2D1D2D68F4
:1004E000C5F301456D1C6B00B2FBF3F5124E356090
:1004F00003E0104D104E356000BF00BF064D0835BB
:100500002D68C5F303150E4E705D0B4D2D68C5406B
:10051000094E356070BD0000003802400070004098
:1005200008244007003C024088ED00E0FFFFF6FE93
:10053000103000240024F4000000002000127A0093
:100540000400002010B504466FF0040000F0EEF83F
:10055000E11704EB5171C1F3C701394A117010461C
:10056000007800EB4001C1EBC0104FF6FF7101EACB
:10057000C0003449088010BD0146314A12784A4310
:100580004FF0E0235A6100229A611A46126942F044
:1005900001021A6100BF4FF0E022106900F0010271
:1005A0001AB100F48032002AF5D04FF0E02212692F
:1005B00022F001024FF0E0231A6100229A61704795
:1005C0000146204A12884A434FF0E0235A61002234
:1005D0009A611A46126942F001021A6100BF4FF097
:1005E000E022106900F001021AB100F48032002A02
:1005F000F5D04FF0E022126922F001024FF0E02323
:100600001A6100229A61704770B504464FF4077072
:1006100094FBF0F0C6B24FF4077094FBF0F100FBCE
:10062000114085B205E04FF40770FFF7C9FF701E57
:10063000C6B2002EF7D115B12846FFF7C1FF70BD35
:100640001400002016000020094880470948004790
:10065000FEE7FEE7FEE7FEE7FEE7FEE7FEE7FEE772
:10066000FEE7FEE704480549054A064B70470000CF
:1006700011040008AD01000818010020180700202F
:10068000180300201803002032490143324A116048
:10069000704770B5002100230F22C4781CB32E4C84
:1006A000246804F4E064C4F5E064C4F30721C1F1F4
:1006B0000404E3B20A4144789C40E1B284781440D7
:1006C00021430C07210E254C05786155047804F070
:1006D0001F050124AC4005786D11AD0005F1E02542
:1006E000C5F8004109E0047804F01F050124AC407E
:1006F0001B4D0678761145F8264070BD194A0A4010
:100700000243154B1B1F1A60704739B1124A121D64
:1007100012680243104B1B1D1A6006E00E4A121DA0
:10072000126882430C4B1B1D1A607047042808D1C5
:100730004FF0E021096941F004014FF0E02211611E
:1007400007E04FF0E021096921F004014FF0E022B9
:10075000116170470000FA050CED00E000E400E0D4
:1007600080E100E080FFFF1F10B5044698488442F6
:1007700008D10121084601F04DFC0021012001F0C3
:1007800049FC76E09348844208D10121022001F01F
:1007900041FC0021022001F03DFC6AE08E488442C9
:1007A00008D10121042001F035FC0021042001F0D2
:1007B00031FC5EE08948844208D10121082001F023
:1007C00029FC0021082001F025FC52E084488442E5
:1007D00008D10121102001F01DFC0021102001F0A2
:1007E00019FC46E07F48844208D10121202001F015
:1007F00011FC0021202001F00DFC3AE07A488442EF
:1008000008D10121402001F005FC0021402001F029
:1008100001FC2EE07548844208D10121802001F0BE
:10082000F9FB0021802001F0F5FB22E070488442B2
:1008300008D10121801501F0EDFB0021A01501F088
:10084000E9FB16E06B48844208D10121401501F014
:10085000E1FB0021601501F0DDFB0AE066488442FF
:1008600007D10121001501F0D5FB0021201501F071
:10087000D1FB10BDF0B50A4600210023002400BFC3
:100880003DE0012505FA01F3156805EA03049C42E1
:1008900034D105684F000326BE40B5430560157985
:1008A0004E00B5400668354305601579012D02D02C
:1008B0001579022D16D185684F000326BE40B54339
:1008C000856055794E00B54086683543856045683A
:1008D00001268E40B5434560456896798E40B6B294
:1008E00035434560C5684F000326BE40B543C5602B
:1008F000D5794E00B540C6683543C560491C1029FE
:10090000BFD3F0BD4FF6FF7101600021017141714D
:100910008171C171704708B54FF480320092009A1E
:100920000A430092009AC261C161009AC261C26921
:100930000092C269009208BD0246002013690B4074
:100940000BB1012000E0002070470146086980B229
:1009500070470246002053690B400BB1012000E0B4
:10096000002070470146486980B270470183704794
:10097000418370470AB1018300E0418370474161C0
:10098000704742694A4042617047F0B50023002435
:100990004D07ED0E02FA05F3CE1000F1200555F8D3
:1009A00026504E07F70E0F26BE40B543CF1000F17C
:1009B000200646F82750CE1000F1200555F82650A5
:1009C00045EA0304CE1000F1200545F82640F0BDAD
:1009D000000002400004024000080240000C0240F7
:1009E000001002400014024000180240001C0240A7
:1009F00000200240002402400028024010B50446B6
:100A0000FA48844208D10121102001F047FB00215F
:100A1000102001F043FB57E0F548844209D1012141
:100A2000480401F02AFB00214FF4003001F025FBBF
:100A30004AE0F048844209D10121880401F01DFBFD
:100A400000214FF4802001F018FB3DE0EA48844289
:100A500009D10121C80401F010FB00214FF400204E
:100A600001F00BFB30E0E548844209D10121080583
:100A700001F003FB00214FF4801001F0FEFA23E0A7
:100A8000DF48844208D10121202001F007FB00212A
:100A9000202001F003FB17E0DA48844209D101214C
:100AA000880701F0EAFA00214FF0804001F0E5FAF2
:100AB0000AE0D548844207D10121400501F0DDFA62
:100AC0000021600501F0D9FA10BD2DE9FF47054668
:100AD0000E460024A14600BFA046B08900B100BF69
:100AE0002C8A24F44054F08804432C82AC8941F2CF
:100AF0000C608443B08831890843718908430443FA
:100B0000AC81AC8A24F44074B0890443AC8268465A
:100B100001F046F9B548854202D0B948854202D174
:100B2000DDF80C9001E0DDF80890A88900F40040A1
:100B300040B109EBC90000EB091031684900B0FB76
:100B4000F1F707E009EBC90000EB091031688900F3
:100B5000B0FBF1F76420B7FBF0F004012009642139
:100B600001FB1078A88900F4004040B1322000EB6E
:100B7000C800B0FBF1F000F00700044308E03220A9
:100B800000EB08106421B0FBF1F000F00F0004430B
:100B90002C81BDE8FF874FF4165101600021818050
:100BA000C18001810C21418100218181704710B5F4
:100BB00002460020108A20F470600B884C88234382
:100BC0008C882343CC8823431843108210BD002116
:100BD000018041808180C180704721B1828942F4C7
:100BE0000052828104E082894DF6FF731A408281AF
:100BF0007047028B02F47F420283028B0A43028316
:100C0000704721B1828942F40042828103E08289E7
:100C1000C2F30E028281704721B1828A42F40062DF
:100C2000828204E0828A4FF2FF731A408282704708
:100C3000C1F308028280704701468888C0F308002B
:100C40007047028A4FF6F0731A400282028A0A4302
:100C50000282704721B1828942F00202828104E05F
:100C600082894FF6FD731A408281704782894FF264
:100C7000FF731A40828182890A4382817047028A07
:100C80004FF6DF731A400282028A0A4302827047DB
:100C900021B1028A42F48042028204E0028A4BF6C9
:100CA000FF731A4002827047818941F001018181FE
:100CB000704721B1828A42F00802828204E0828A6F
:100CC0004FF6F7731A4082827047028BD2B20283CA
:100CD000028B42EA01220283704721B1828A42F0EC
:100CE0002002828204E0828A4FF6DF731A408282F9
:100CF000704721B1828A42F01002828204E0828A27
:100D00004FF6EF731A4082827047828A4FF6FB7368
:100D10001A408282828A0A438282704721B1828A83
:100D200042F00202828204E0828A4FF6FD731A408A
:100D3000828270471AB1838A0B43838202E0838ADE
:100D40008B4383827047F0B50346002400260025BC
:100D5000002040F66A17B94200D100BF1846C1F31F
:100D6000421401F01F06012707FA06F5012C01D1F4
:100D70000C3004E0022C01D1103000E014301AB124
:100D800007682F43076002E00768AF430760F0BDC4
:100D900002460020B1F5007F00D100BF13880B4050
:100DA0000BB1012000E00020704701F40072B2F5A1
:100DB000007F00D100BFCA430280704770B5024671
:100DC000002400230025002040F66A16B14200D11D
:100DD00000BFC1F3421501F01F03012606FA03F319
:100DE000012D13D19689334017E000000010014017
:100DF0000044004000480040004C004000500040CB
:100E00000014014000780040007C0040022D02D117
:100E1000168A334001E0968A33400C12012606FA06
:100E200004F41688344013B10CB1012000E0002016
:100E300070BD10B50022002340F66A14A14200D113
:100E400000BF0A1201249440A3B2DC43048010BD09
:100E500010B50446FE48844208D10121084601F03D
:100E60001DF90021012001F019F99DE0B4F1804F36
:100E700008D10121084601F000F90021012001F00C
:100E8000FCF891E0F348844208D10121022001F0EE
:100E9000F4F80021022001F0F0F885E0EE488442E9
:100EA00008D10121042001F0E8F80021042001F01C
:100EB000E4F879E0E948844208D10121082001F0F2
:100EC000DCF80021082001F0D8F86DE0E448844205
:100ED00008D10121102001F0D0F80021102001F0EC
:100EE000CCF861E0DF48844208D10121202001F0E4
:100EF000C4F80021202001F0C0F855E0DA4884420F
:100F000008D10121022001F0C9F80021022001F0DE
:100F1000C5F849E0D548844209D10121080401F00F
:100F2000BDF800214FF4803001F0B8F83CE0D04823
:100F3000844209D10121480401F0B0F800214FF4A6
:100F4000003001F0ABF82FE0CA48844209D10121FA
:100F5000880401F0A3F800214FF4802001F09EF8EE
:100F600022E0C548844208D10121402001F085F8E3
:100F70000021402001F081F816E0C048844208D1E9
:100F80000121802001F079F80021802001F075F81E
:100F90000AE0BB48844207D10121801501F06DF8B9
:100FA0000021A01501F069F810BD00220288A84BAD
:100FB00098420ED0AC4B98420BD0B0F1804F08D085
:100FC000A44B984205D0A44B984202D0A34B984220
:100FD00004D14FF68F731A404B881A43A04B9842A6
:100FE00007D0A04B984204D04FF6FF431A400B891C
:100FF0001A4302804B68C3620B880385944B984266
:1010000002D0994B984201D18B7A038601238382C7
:1010100070474FF0FF314160002101800181418024
:10102000817270470185828270470A4600210188DB
:101030004FF68F731940114301807047416270472A
:10104000C16270470146486A70470146088D704783
:1010500021B1028842F00202028004E002884FF6C9
:10106000FD731A400280704721B1028842F00402E9
:10107000028004E002884FF6FB731A40028070473A
:1010800021B1028842F08002028004E002884FF61B
:101090007F731A400280704702884FF6F7731A4038
:1010A000028002880A430280704702884FF6FF439D
:1010B0001A40028002880A430280704721B10288E8
:1010C00042F00102028004E002884FF6FE731A40EB
:1010D0000280704770B5002400220023058C4FF673
:1010E000FE7635400584028C8388048B4FF68F751D
:1010F0002C40B51E2C400D882C43751E2A408D892E
:101100002A434D882A43524DA84202D0564DA84248
:1011100013D14FF6F7752A40CD892A434FF6FB7558
:101120002A408D882A434FF6FF652B404FF6FF5526
:101130002B400D8A2B434D8A2B43838004838D687B
:101140004563028470BD70B5002400220023058C25
:101150004FF6EF7635400584028C8388048B48F681
:10116000FF752C404FF6FF452C400D884FF6FF765B
:1011700006EA05252C434FF6DF752A408D8906EADD
:1011800005152A434D8806EA05152A43304DA84225
:1011900002D0354DA8421DD14FF67F752A40CD892A
:1011A0004FF6FF7606EA05152A434FF6BF752A402B
:1011B0008D8806EA05152A434FF6FF352B404FF27E
:1011C000FF752B400D8A06EA85052B434D8A06EAFA
:1011D00085052B43838004838D688563028470BDFD
:1011E00070B5002400220023058C4FF6FF663540C1
:1011F0000584028C8388848B4FF68F752C404FF6C4
:10120000FC752C400D882C434FF6FF552A408D89E4
:101210004FF6FF7606EA05252A434D8806EA05259E
:101220002A430B4DA84202D00F4DA84238D14FF2AD
:10123000FF752A40CD894FF6FF7606EA05252A4339
:101240004FF6FF352A408D8806EA05252A4319E026
:10125000000001400004004000080040000C004075
:101260000010004000140040000401400040014014
:10127000004401400048014000180040001C0040AC
:10128000002000404EF6FF752B404DF6FF752B40B9
:101290000D8A06EA05152B434D8A06EA05152B43F0
:1012A000838084838D68C563028470BD70B500221D
:1012B00000230024058C4EF6FF7635400584038C10
:1012C0008488828B48F6FF752A404FF6FF452A40F6
:1012D0000D884FF6FF7606EA05252A434DF6FF7581
:1012E0002B408D8906EA05352B434D8806EA0535E6
:1012F0002B43FE4DA84202D0FD4DA84208D14BF62B
:10130000FF752C400D8A4FF6FF7606EA85152C43B3
:10131000848082838D680564038470BD0021018010
:101320004180818081608181C181018241827047D9
:1013300070B50346002000241846183001258D4062
:10134000ACB21D8CA5431D8409B108290AD100EB5C
:10135000610005684FF68F763540056005681543D6
:1013600005600FE00D1FC5F34E052844056848F6DB
:10137000FF763540056005684FF6FF7606EA0226DF
:101380003543056070BD4163704781637047C16339
:101390007047016470470A460021018B4FF68F7336
:1013A00019401143018370470A460021018B48F61A
:1013B000FF7319404FF6FF7303EA022319430183B9
:1013C00070470A460021818B4FF68F7319401143F5
:1013D000818370470A460021818B48F6FF731940CC
:1013E0004FF6FF7303EA02231943818370470A46CD
:1013F0000021018B4FF6F7731940114301837047A9
:101400000A460021018B4FF2FF7319404FF6FF731C
:1014100003EA02231943018370470A460021818BA6
:101420004FF6F77319401143818370470A46002134
:10143000818B4FF2FF7319404FF6FF7303EA0223CB
:101440001943818370470A460021018B4FF6FB73D5
:1014500019401143018370470A460021018B4FF662
:10146000FF3319404FF6FF7303EA02231943018348
:1014700070470A460021818B4FF6FB7319401143D8
:10148000818370470A460021818B4FF6FF33194054
:101490004FF6FF7303EA02231943818370470A461C
:1014A0000021018B4FF67F73194011430183704770
:1014B0000A460021018BC1F30E014FF6FF7303EAC8
:1014C00002231943018370470A460021818B4FF69E
:1014D0007F7319401143818370470A460021818B35
:1014E000C1F30E014FF6FF7303EA02231943818310
:1014F00070470A460021018C4FF6FD7319401143D5
:10150000018470470A460021018C4FF6F773194099
:101510001143018470470A460021018C4FF6DF73A6
:1015200019404FF6FF7303EA021319430184704711
:101530000A460021018C4FF67F7319404FF6FF7366
:1015400003EA02131943018470470A460021018C03
:101550004FF6FF5319404FF6FF7303EA0223194376
:10156000018470470A460021018C4FF2FF73194035
:101570004FF6FF7303EA02231943018470470A46BA
:101580000021018C4DF6FF7319404FF6FF7303EAFB
:10159000023319430184704730B5002301248C4085
:1015A000A3B2048C9C430484048C02FA01F5ADB20E
:1015B0002C43048430BD30B5002304248C40A3B2F6
:1015C000048C9C430484048C02FA01F5ADB22C43D4
:1015D000048430BD828B4FF2FF331A408283828BAA
:1015E0004FF6FF7303EA01231A4382837047F0B575
:1015F0000C461546002100220026078C4EF6FF7C83
:1016000007EA0C070784818B028C4FF6FF7707EA05
:10161000043640F6FF4739404FF6FF7707EA0527C3
:1016200039434FF6FF7707EA0337394345F6FF772B
:101630003A4046F480573A4381830284F0BD828B5E
:101640004FF6F3731A408283828B0A43828370477A
:10165000F0B50C461546002100220026078C4FF6F7
:10166000FF6C07EA0C070784818B028C4FF6FF772B
:1016700007EA04264FF60C7739404FF6FF7707EA62
:1016800003172F4339434FF2FF573A4046F4807710
:101690003A4381830284F0BD028B4FF2FF331A403C
:1016A0000283028B4FF6FF7303EA01231A4302837E
:1016B0007047F0B50C461546002100220026078C25
:1016C0004FF6EF7C07EA0C070784018B028C4FF67C
:1016D000FF7707EA041640F6FF4739404FF6FF77D9
:1016E00007EA033739434FF6FF7703E00000014074
:1016F0000004014007EA052739434FF65F773A4077
:1017000046F010073A4301830284F0BD028B4FF686
:10171000F3731A400283028B0A4302837047F0B5C9
:101720000C46154600210022068C4FF6FE773E40FF
:101730000684018B028C4FF60C7631407E1C06EA43
:1017400003162E4331434FF6F576324044F001063E
:10175000324301830284F0BD70B505460C462088F3
:1017600050B92389A28861882846FFF7D8FFE1880D
:101770002846FFF7CBFF25E0208804280AD12389DB
:10178000A28861882846FFF794FFE1882846FFF782
:1017900083FF17E0208808280AD12389A28861885E
:1017A0002846FFF755FFE1882846FFF748FF09E084
:1017B0002389A28861882846FFF719FFE188284617
:1017C000FFF708FF70BD0021018041800121818069
:1017D0000021C180018170472DE9F04105460C468A
:1017E00000260127608808B9022600E00026A088AC
:1017F000012801D1022700E001272088A0B9238910
:10180000A28861882846FFF78AFFE1882846FFF70B
:101810007DFF23893A4631462846FFF74AFFE18893
:101820002846FFF739FF13E02389A28861882846FC
:10183000FFF73FFFE1882846FFF72EFF23893A464E
:1018400031462846FFF76BFFE1882846FFF75EFF29
:10185000BDE8F0810146486B70470146886B7047D0
:101860000146C86B70470146086C70470A884B8870
:101870001A438B881A43CB881A430B891A434B8926
:101880001A438B891A43A0F8442070470021018035
:1018900041808180C180018141818181704731B166
:1018A000B0F8442042F40042A0F8442005E0B0F82B
:1018B0004420C2F30E02A0F84420704721B1828870
:1018C00042F00402828004E082884FF6FB731A40E3
:1018D0008280704721B1828842F00102828004E058
:1018E00082884FF6FE731A40828070471AB183894E
:1018F0000B43838102E083898B438381704781821C
:10190000704702460020138A0B400BB1012000E013
:1019100000207047CA430282704730B5024600205B
:1019200000230024158A05EA0103958905EA0104CC
:1019300013B10CB1012000E0002030BDCA43028287
:10194000704741EA0203A0F8483070471AB1838912
:101950000B43838102E083898B438381704721B1EC
:10196000828842F00802828004E082884FF6F77392
:101970001A408280704701894FF6F8721140018148
:1019800070470A46002101894FF68F7319401143B1
:101990000181704730B504460D4629462046FFF7C1
:1019A000F0FF208940F00700208130BD2DE9F04193
:1019B00004460D4616461F46602D06D13B460122C1
:1019C00031462046FFF775FE05E03B4601223146D1
:1019D0002046FFF7A4FE29462046FFF7D2FF2089C4
:1019E00040F007002081BDE8F08130B50C460021B1
:1019F0000189C9B24FF6FF7505EA03251543254352
:101A00002943018130BD2DE9F04105460E461746B8
:101A10009846002443463A4631462846FFF7E5FFFC
:101A20002C894FF6F870044044F007044FF68F708D
:101A3000044044F070042C81BDE8F081F0B5044608
:101A40000D4616461F463B46324629462046FFF7BE
:101A5000CCFF208940F480402081F0BD82884FF681
:101A60008F731A40828082880A438280704702897D
:101A70004FF6F8731A40028102890A4302817047C7
:101A800002894FF67F731A40028102890A4302815C
:101A90007047F0B50C4615461E4600210022002373
:101AA0000189028B038C4FF6F877394021434FF6BA
:101AB000FC473A4040F201173A434FF6DD773B408E
:101AC0004FF6FF7707EA06172F433B430181028356
:101AD0000384F0BD21B1828842F08002828004E05C
:101AE00082884FF67F731A4082807047A0F85010AA
:101AF0007047000010B50121880300F0CFFA0021E3
:101B00004FF4804000F0CAFA10BD1C4908607047CD
:101B10001B490862704730B500228B071C0F0F234A
:101B200003FA04F2154B08338C1053F82430934316
:101B3000124C08348D1044F8253023468C1053F88D
:101B400024308C07240F00FA04F423430B4C083490
:101B50008D1044F8253030BD0949DC3108607047EC
:101B6000084908607047002004492031096801F4E1
:101B7000807109B1012000E0002070470038014069
:101B80000000274200042742F648006840F00100A8
:101B9000F44908600020F34908310860F148006802
:101BA000F1490840EF490860F048091D0860F04815
:101BB000EC4984310860ED481038091D0860E94897
:101BC000006820F48020E74908600020E5490C31D6
:101BD0000860E4498C31086070470021E14A921C9A
:101BE000117011460870704710B50146002200239D
:101BF00000204A11012A02D1DA4C236808E0022AA7
:101C000003D1D84C7034236802E0D64C7434236876
:101C100001F01F02012494401C400CB1012000E09F
:101C2000002010BD38B5002000900024002500BF22
:101C30003120FFF7D9FF05460098401C009000981E
:101C4000B0F5A04F01D0002DF2D03120FFF7CCFF2E
:101C500008B1012400E00024204638BD01460020E0
:101C6000C04A106820F0F80040EAC10010607047D8
:101C7000C049086070470021BA4A70321170117073
:101C8000012802D004280AD104E00121B54A7032AB
:101C9000117005E00521B34A7032117000E000BFF9
:101CA00000BF7047B4490860704770B5049C41EAB2
:101CB00082150126C6EB530645EA0645054345EA6B
:101CC0000465A84E361D356070BDAA490866704788
:101CD00010B5830143EA016343EA0273A14C8434E3
:101CE000236010BDA3498866704710B5830143EA9D
:101CF000016343EA02739B4C8834236010BD9D4905
:101D0000086770479B49C864704702460020954B9E
:101D10000833186820F0EC6042EA01031843914B45
:101D2000083318607047024600208E4B083318684D
:101D300020F0784042EA010318438A4B08331860C8
:101D4000704701460020874A0832106820F00300DF
:101D500008431060704783480830006800F00C00AA
:101D60007047014600207F4A0832106820F0F000DA
:101D7000084310607047014600207A4A0832106814
:101D800020F4E05008431060704701460020754A77
:101D90000832106820F4604040EAC10010607047CB
:101DA000F0B50021002200240225002602236D4FF9
:101DB00008373F6807F00C0121B1042905D0082934
:101DC00037D105E06D4F076036E06D4F076033E0B7
:101DD000644F3F1D3F68C7F38056624F3F1D3F6809
:101DE00007F03F036EB1664FB7FBF3F7DFF874C13E
:101DF0000CF1040CDCF800C0CCF3881C07FB0CF4DD
:101E00000CE05E4FB7FBF3F7DFF858C10CF1040CA0
:101E1000DCF800C0CCF3881C07FB0CF4514F3F1DCD
:101E20003F68C7F301477F1C7D00B4FBF5F70760EF
:101E300002E0524F076000BF00BF4A4F08373F68BB
:101E400007F0F00109094F4F7A5C0768D7404760F7
:101E5000444F08373F6807F4E051890A494F7A5CDC
:101E60004768D74087603F4F08373F6807F46041B5
:101E7000490B444F7A5C4768D740C760F0BD0021EA
:101E800000F44072B2F5407F0AD1364A0832116838
:101E900021F4F8113C4A02401143324A08321160E1
:101EA000304A70321268C0F30B031A432D4B703363
:101EB0001A60704730494439086070472E494039EC
:101EC0000860704731490860704701460020254A84
:101ED0008C32106820F01F004A1E1043214A8C32B9
:101EE00010607047014600201E4A8C32106820F4B2
:101EF000F8504A1E40EA02201A4A8C32106070479D
:101F000001460020174A8C32106820F44010084324
:101F10001060704701460020124A8C32106820F48D
:101F20004000084310607047014600200D4A8C3283
:101F3000106820F44030084310607047144908606E
:101F4000704739B1074A303212680243054B3033CB
:101F50001A6006E0034A303212688243014B303384
:101F60001A60704700380240FFFFF6EA1030002484
:101F70000030002000004742800E47420024F40059
:101F800000127A0018000020FFFCFF0F5C0147429E
:101F9000E011474229B1934A12680243914B1A60FB
:101FA00004E0904A126882438E4B1A60704739B140
:101FB0008C4A121D126802438A4B1B1D1A6006E0F0
:101FC000884A121D12688243864B1B1D1A60704797
:101FD00039B1844A0C3212680243824B0C331A60C6
:101FE00006E0804A0C32126882437E4B0C331A6042
:101FF000704739B17B4A103212680243794B103373
:102000001A6006E0774A103212688243754B10332B
:102010001A60704739B1734A243A12680243714B0F
:10202000243B1A6006E06F4A243A126882436D4BE3
:10203000243B1A60704739B16A4A203A1268024359
:10204000684B203B1A6006E0664A203A12688243D9
:10205000644B203B1A60704739B1624A1C3A1268DF
:102060000243604B1C3B1A6006E05E4A1C3A126851
:1020700082435C4B1C3B1A60704739B1594A143A91
:1020800012680243574B143B1A6006E0554A143A53
:1020900012688243534B143B1A60704739B1514A5E
:1020A000103A126802434F4B103B1A6006E04D4A4B
:1020B000103A126882434B4B103B1A60704739B19B
:1020C000484A1C3212680243464B1C331A6006E031
:1020D000444A1C3212688243424B1C331A607047D8
:1020E00039B1404A2032126802433E4B20331A6015
:1020F00006E03C4A2032126882433A4B20331A6091
:10210000704739B1374A243212680243354B2433C1
:102110001A6006E0334A243212688243314B24337A
:102120001A60704739B12F4A2C32126802432D4B86
:102130002C331A6006E02B4A2C3212688243294B5A
:102140002C331A60704739B1264A30321268024384
:10215000244B30331A6006E0224A30321268824340
:10216000204B30331A607047012808D11D493C319B
:10217000096841F008011B4A3C32116007E0194927
:102180003C31096821F00801164A3C321160704761
:1021900039B1144A273A12780243124B273B1A707E
:1021A00006E0104A273A127882430E4B273B1A70FA
:1021B00070470C484030006840F080700949403159
:1021C0000860704701460020064A283A12680A4013
:1021D0000AB1012000E0002070470249263908704A
:1021E0007047000034380240002041490860091D52
:1021F0000860091D0860091D08603E483C4914310B
:102200000860704700213A498279002A3AD00A468C
:10221000126803689A430B461A600A1D1268036825
:102220009A430B1D1A60027911440A6803681A4325
:102230000A602F4A0832126803689A432C4B08330D
:102240001A601A1D126803689A43294B0C331A60EE
:102250004279102A0ED11A1F126803681A43244BC0
:1022600008331A601A1D126803681A43204B0C3396
:102270001A600DE01E49427911440A6803681A4346
:102280000A6005E0027911440A6803689A430A600B
:1022900070470021016001710C21417100218171A1
:1022A00070471349103109680143114A1032116017
:1022B0007047014600200E4A143212680A400AB1E3
:1022C000012000E000207047094914310860704780
:1022D00001460020064A143212680A400AB1012061
:1022E00000E0002070470249143108607047000088
:1022F000003C0140FFFF7F0038B505460C468DF8D5
:1023000001508DF8024025208DF8000001208DF845
:1023100003006846FEF7BDF938BD1CB50121022057
:10232000FFF70FFEC020009002208DF8040000206F
:102330008DF805006946FE48FEF79CFA0722062143
:10234000FB48FEF722FB07221146F948FEF71DFB6A
:102350001CBD1FB5FFF7E1FF01211020FFF749FE6B
:102360004FF4E13000900020ADF80400ADF8060015
:10237000ADF80800ADF80C000C20ADF80A00694675
:10238000EC48FEF7A2FB012240F22551E948FEF796
:10239000DAFC0121E748FEF720FC1FBD10B5202123
:1023A000E448FEF7F5FC012871D1E248FEF744FC51
:1023B000E149E24A12688854E048006830B90020D8
:1023C000DF4908600121DF48FEF778FEDB4800683E
:1023D000401CDA490860084600681328E4D1D84850
:1023E00000680A2853DCD448407C0D28DCD1D24850
:1023F000807C0A28D8D10020D34908600021D14828
:10240000FEF75CFE1322D1A1CB4801F080F988BB16
:102410000120D34908600020D249086044F62060BA
:10242000D1490860D1490860D1490860D1490860A4
:10243000D1490860D1490860D1490860D149086094
:102440000020D1490860D149C1F89002CE49083135
:1024500008600121CE48FEF731FE0121CD48FEF78C
:102460002DFE0121CC48FEF729FE0121CB48FEF7C5
:1024700025FE5AE3FFE71322C9A1AF4801F047F94F
:1024800030B90120CB490860AF4908604DE359E3FA
:102490001322C9A1A84801F03AF978BB0020C54928
:1024A0000860CA480068B8490860C9480068B74968
:1024B000C1F89002C7480068C1F89402C648006895
:1024C000C1F8B402C5480068C1F8B802C448006841
:1024D000C1F8BC020121AE48FEF7F0FD0121AD4874
:1024E000FEF7ECFD0121AC48FEF7E8FD0121AB4809
:1024F000FEF7E4FD00209449086016E3FFE713228D
:10250000B8A18D4801F003F990BB00209E49283105
:1025100008609E49C1F8B8029B49303108609A4969
:102520000860091D0860091D08608D4908600021C8
:102530009748FEF783FD00219548FEF7BFFD002177
:102540009448FEF77BFD00219248FEF7B7FD00217D
:102550009148FEF773FD00218F48FEF7AFFD002183
:102560008E48FEF76BFD00218C48FEF7A7FDDCE2EC
:10257000FFE7012011E070490A5C411E9E4B5A544E
:102580006D4A811D525C411E9C4B5A546A4A0D3162
:10259000525C411E9A4B5A54401C0528EBDB96486E
:1025A000007830384FF47A7110FB01F1924840788E
:1025B000303800EBC00202EB001001EB80018E48C6
:1025C0008078303800EB800001EB40018A48C07809
:1025D00030380844664908606649086087480078D2
:1025E00030384FF47A7110FB01F18448407830386C
:1025F00000EBC00202EB001001EB80017F48807805
:10260000303800EB800001EB40017C48C078303866
:1026100008445949086059490860794800783038B9
:102620004FF47A7110FB01F175484078303800EBB7
:10263000C00202EB001001EB800171488078303855
:1026400000EB800001EB40016D48C0783038084451
:102650004B4908604B490860464800684FF47A715E
:1026600090FBF1F00A2190FBF1F201FB12003030F7
:10267000C4B221462F48FEF7DBFA00BF80212D4867
:10268000FEF786FB0028F9D03A480068642190FBE9
:10269000F1F00A2190FBF1F201FB12003030C4B2DC
:1026A00021462448FEF7C4FA00BF80212148FEF7E6
:1026B0006FFB0028F9D02F4800680A2190FBF1F049
:1026C000642190FBF1F201FB12003030C4B22146CC
:1026D0001848FEF7ADFA00BF80211648FEF758FBF8
:1026E0000028F9D0234800680A2190FBF1F201FB91
:1026F00012003030C4B221460E48FEF799FA00BFEE
:1027000080210C48FEF744FB0028F9D03B21094802
:10271000FEF78EFA00BF80210648FEF739FB00283D
:10272000F9D0164800684FF47A7190FBF1F069E037
:1027300000040240001001409800002038000020F2
:102740005C0000200014004054000020535441520B
:10275000545354415254535441525453540D0A004B
:10276000840000205800002070000020600000203D
:102770007400002064000020780000206800002021
:102780007C0000206C0000208C0243420000434289
:10279000001000400040014000440140004801405A
:1027A000504155534550415553455041555345505F
:1027B000410D0A0080000020524553554D455245B9
:1027C00053554D45524553554D0D0A0048000020C4
:1027D0004C000020500000203C0000204000002061
:1027E0004400002053544F5053544F5053544F50B3
:1027F00053544F50530D0A00280000202C00002095
:10280000300000200A2190FBF1F201FB1200303071
:10281000C4B22146CC48FEF70BFA00BF8021CA485B
:10282000FEF7B6FA0028F9D0C8480068642190FB8A
:10283000F1F00A2190FBF1F201FB12003030C4B23A
:102840002146C148FEF7F4F900BF8021BE48FEF7DB
:102850009FFA0028F9D0BD4800680A2190FBF1F0EA
:1028600090FBF1F201FB12003030C4B22146B648B1
:10287000FEF7DEF900BF8021B348FEF789FA002891
:10288000F9D0B24800680A2190FBF1F201FB120076
:102890003030C4B22146AC48FEF7CAF900BF8021EF
:1028A000A948FEF775FA0028F9D03B21A648FEF7A3
:1028B000BFF900BF8021A448FEF76AFA0028F9D0CA
:1028C000A34800684FF47A7190FBF1F00A2190FB65
:1028D000F1F201FB12003030C4B221469A48FEF7F3
:1028E000A7F900BF80219848FEF752FA0028F9D0D6
:1028F00097480068642190FBF1F00A2190FBF1F207
:1029000001FB12003030C4B221468F48FEF790F927
:1029100000BF80218C48FEF73BFA0028F9D08C4894
:1029200000680A2190FBF1F090FBF1F201FB12002C
:102930003030C4B221468448FEF77AF900BF8021C6
:102940008148FEF725FA0028F9D0814800680A215D
:1029500090FBF1F201FB12003030C4B221467A48FC
:10296000FEF766F900BF80217748FEF711FA0028CC
:10297000F9D07848006875490968884206DB7548CF
:102980000068754908607549086005E06F4800688F
:102990007149086071490860704800686C490968AD
:1029A000884205DA6A4800686B4908606B4908602C
:1029B0006A480068401C6949086008460068664922
:1029C00008603B216048FEF733F900BF80215E4874
:1029D000FEF7DEF90028F9D05F4800684FF47A71FD
:1029E00090FBF1F00A2190FBF1F201FB1200303074
:1029F000C4B221465448FEF71BF900BF802152485B
:102A0000FEF7C6F90028F9D053480068642190FB0E
:102A1000F1F00A2190FBF1F201FB12003030C4B258
:102A200021464948FEF704F900BF80214648FEF7D9
:102A3000AFF90028F9D0484800680A2190FBF1F06E
:102A400090FBF1F201FB12003030C4B221463E4847
:102A5000FEF7EEF800BF80213B48FEF799F9002809
:102A6000F9D03D4800680A2190FBF1F201FB120009
:102A70003030C4B221463448FEF7DAF800BF802176
:102A80003148FEF785F90028F9D0354800783549F6
:102A9000087033488079344908703148007B3349E5
:102AA0000870304800782B2803D100203049086096
:102AB00006E02C4800782D2802D101202C4908601E
:102AC000294800782B2804D100202949091D0860D5
:102AD00007E0254800782D2803D101202449091D4D
:102AE0000860224800782B2804D1002020490831B2
:102AF000086007E01D4800782D2803D101201C49FB
:102B00000831086001201B49086001211A48FEF7BE
:102B1000D5FA01211948FEF7D1FA01211848FEF72C
:102B2000CDFA01211748FEF7C9FA002003E0002181
:102B30000B4A1154401C1328F9D300201249086095
:102B40001249086010BD000000100140680000201C
:102B50006C00002064000020700000206000002055
:102B600098000020340000203500002036000020AE
:102B70008C024342840000200010004000400140CD
:102B80000044014000480140380000205C00002063
:102B90003EB505460C4601211020FFF719FA681EC4
:102BA0000190601E80B2ADF800000020ADF8020078
:102BB000ADF808006946FA48FEF7F7F90122114618
:102BC000F748FEF793FE0021F548FEF777FA3EBD81
:102BD0003EB505460C4601212020FFF7F9F9681E95
:102BE0000190601E80B2ADF800000020ADF8020038
:102BF000ADF808006946EB48FEF7D7F90122114607
:102C0000E848FEF773FE0021E648FEF757FA3EBD9E
:102C10003EB505460C4601210804FFF7EAF9681E97
:102C20000190601E80B2ADF800000020ADF80200F7
:102C3000ADF808006946DC48FEF7B7F901221146F5
:102C4000D948FEF753FE0021D748FEF737FA3EBDBC
:102C50003EB505460C4601214804FFF7CAF9681E37
:102C60000190601E80B2ADF800000020ADF80200B7
:102C7000ADF808006946CD48FEF797F901221146E4
:102C8000CA48FEF733FE0021C848FEF717FA3EBDDA
:102C90003EB505460C4601218804FFF7AAF9681ED7
:102CA0000190601E80B2ADF800000020ADF8020077
:102CB000ADF808006946BE48FEF777F901221146D3
:102CC000BB48FEF713FE0021B948FEF7F7F93EBDF9
:102CD00038B505460C4636208DF800008DF80150B9
:102CE0008DF8024001208DF803006846FDF7D1FC05
:102CF00038BD38B505460C4637208DF800008DF8F4
:102D000001508DF8024001208DF803006846FDF760
:102D1000C0FC38BD38B505460C4618208DF80000BB
:102D20008DF801508DF8024001208DF803006846AF
:102D3000FDF7AFFC38BD38B505460C4619208DF8B7
:102D400000008DF801508DF8024001208DF803003D
:102D50006846FDF79EFC38BD38B505460C461A207E
:102D60008DF800008DF801508DF8024001208DF89B
:102D700003006846FDF78DFC38BD10B50121884879
:102D8000FEF7CBFD012867D18A480068012863D18E
:102D90008948006828B188480068401E8649086054
:102DA00053E000217E48FEF749F900217C48FEF7F8
:102DB00085F900217C48FEF741F900217A48FEF7A9
:102DC0007DF900217948FEF739F900217748FEF7AF
:102DD00075F900217648FEF731F900217448FEF7B5
:102DE0006DF90020754908607549C1F8B80273494A
:102DF00008310860714928390860091D0860091DFB
:102E0000086070490860704908607049086070493E
:102E100008604FF47A70FDF7F7FB6EA16F4800F081
:102E200033FC00240CE06D48015D6D48FDF700FFA8
:102E300000BF80216A48FDF7ABFF0028F9D0641C71
:102E4000664800F045FCA042EDD86648006818B11D
:102E500000215348FEF732F901215148FEF76EFD7B
:102E600010BD10B501214F48FEF757FD01283CD198
:102E700050480068002838D05B480068401C5A4918
:102E80000860084600680A282FDD584800681328A3
:102E90002BD000214348FEF711F955480068B8B11E
:102EA00054A14E4800F0F0FB00240CE04B48015DBB
:102EB0004B48FDF7BDFE00BF80214948FDF768FF84
:102EC0000028F9D0641C454800F002FCA042EDD86F
:102ED000002003E00021494A1154401C0D28F9D379
:102EE0000020424908604049086001212D48FEF752
:102EF00025FD10BD10B501212B48FEF70EFD012860
:102F000035D12C480068002831D03D48006868B1B0
:102F10002A48006808B9012000E00020274908601D
:102F200037480068401E364908600AE000202349FF
:102F3000086000211C48FEF781F800211A48FEF7BE
:102F4000BDF82848006890B100211748FEF7B6F890
:102F50001A4800682B4908601848283800682A4930
:102F600008600020154908601549C1F88C0201214C
:102F70000D48FEF7E3FC10BD10B501210B48FEF72C
:102F8000CCFC012870D10B48006800286CD01F4889
:102F90000068E8B30948001D0068D0BB01203AE092
:102FA0000010004000140040004001400044014077
:102FB000004801408400002070000020B402434219
:102FC00000004342880000208C0000209000002078
:102FD000940000204F4B0D0A00000000AB000020C1
:102FE00000100140800000205C000020380000201C
:102FF0005400002052450D0A0000000098000020F7
:10300000740000203C0000204800002078000020D0
:1030100009E0FFE700203A4908603A480068401E8E
:10302000384908600AE00020354908600021364828
:10303000FEF704F800213448FEF740F833480068F2
:1030400090B100213048FEF739F82D48006830492A
:1030500008602B48283800682E490860002028495D
:1030600008602D49C1F8900201212748FEF766FC4F
:1030700010BD10B501212948FEF74FFC01283AD1B7
:1030800027480068002836D02648006878B11C48D8
:10309000001D006808B9012000E000201849091D42
:1030A000086020480068401E1E4908600BE00020B0
:1030B0001349091D086000211848FDF7BFFF0021D2
:1030C0001648FDF7FBFF11480068A0B10021134826
:1030D000FDF7F4FF0A48001D00681349086008481E
:1030E000243800681149086000200549091D08605E
:1030F0000949C1F8940201210848FEF71FFC10BDE0
:10310000B8024342780000200044014080000020C3
:10311000400000204C0000200000434200480140D5
:10312000840000207C00002044000020500000208B
:103130000EB501218803FEF75CFF00210620FEF793
:10314000EAFC01210620FEF7E6FC02210620FEF73C
:10315000E2FC06210846FEF7DEFC07210620FEF70A
:10316000DAFC08210620FEF7D6FC40F2C7100190D9
:1031700000208DF8080008208DF8090001208DF846
:103180000A0001A8FFF73EF806208DF80000002095
:103190008DF8010002208DF8020001208DF8030057
:1031A0006846FDF776FA07208DF8000001208DF8BB
:1031B000010002208DF8020001208DF8030068460E
:1031C000FDF767FA08208DF8000002208DF8010055
:1031D0008DF8020001208DF803006846FDF759FACA
:1031E00017208DF8000003208DF8010002208DF8D3
:1031F000020001208DF803006846FDF74AFA0EBD73
:1032000010B51420FDF700FAE8480068012874D1D1
:10321000E7480068002870D1E648006838B9E648F9
:103220000068401CE44908600120E2490860002071
:10323000DE49B43108600021E048FDF7FFFE0021BF
:10324000DE48FDF73BFFDC480068032855D1D9482C
:103250000068002851D00120D54908600021D848D5
:10326000FDF7ECFE0021D648FDF728FF0021D348EA
:10327000FDF7E4FE0021D148FDF720FF0021D148F1
:10328000FDF7DCFE0021CF48FDF718FF0021CE48F6
:10329000FDF7D4FE0021CC48FDF710FF0120C34903
:1032A0008C310860C949C1F89002C0499431086066
:1032B00041F29410C6490860C6490860C6490860D2
:1032C000C6490860C6490860C6490860C649086022
:1032D000C64908600120C64908600121B848FDF7C9
:1032E000EDFE0121B548FDF7E9FE0121B548FDF7E6
:1032F000E5FE0121B448FDF7E1FE0120FEF7F3FFF2
:1033000010BD10B51420FDF77FF9A848001D006816
:10331000012874D1A6480068002870D1B54800681B
:1033200038B9A5480068401CA34908600120B1498C
:10333000086000209D49B83108600021A148FDF7D0
:103340007DFE00219F48FDF7B9FE9B4800680328D9
:1033500055D1A8480068002851D001209449086040
:1033600000219748FDF76AFE00219548FDF7A6FE6B
:1033700000219248FDF762FE00219048FDF79EFE75
:1033800000219048FDF75AFE00218E48FDF796FE79
:1033900000218D48FDF752FE00218B48FDF78EFE7F
:1033A000012082498C3108608849C1F890027F4928
:1033B0009431086041F2941085490860854908609D
:1033C0008549086085490860854908608549086025
:1033D0008549086085490860012085490860012108
:1033E0007748FDF76BFE01217448FDF767FE012168
:1033F0007448FDF763FE01217348FDF75FFE02206C
:10340000FEF771FF10BD10B51420FDF7FDF86748F9
:1034100008300068012874D165480068002870D120
:103420007548006838B964480068401C6249086003
:1034300001207149086000205C49BC31086000210E
:103440006148FDF7FBFD00215F48FDF737FE5A4854
:103450000068032855D168480068002851D0012031
:103460005349086000215648FDF7E8FD0021544803
:10347000FDF724FE00215148FDF7E0FD00214F48F3
:10348000FDF71CFE00214F48FDF7D8FD00214D48F7
:10349000FDF714FE00214C48FDF7D0FD00214A48FD
:1034A000FDF70CFE012041498C3108604749C1F805
:1034B00090023E499431086041F2941044490860FA
:1034C0004449086044490860444908604449086028
:1034D000444908604449086044490860012044495F
:1034E000086001213648FDF7E9FD01213348FDF769
:1034F000E5FD01213348FDF7E1FD01213248FDF7EB
:10350000DDFD0420FEF7EFFE10BD10B52848006871
:10351000D0B14020FEF7CDFE012803D14020FEF7B8
:10352000E2FE11E08020FEF7C4FE012803D18020D6
:10353000FEF7D9FE08E04FF48070FEF7BAFE0128CE
:1035400002D10002FEF7CFFE10BD10B500211C48CD
:10355000FDF7B4FD00212948FDF7B0FD0021174813
:10356000FDF7ACFD00211748FDF7A8FD0021164826
:10357000FDF7A4FD0020224908601649086017499C
:103580000860184908601949086011490860124923
:10359000086013490860144908601A49086001204E
:1035A000194908600249086010BD0000000243424A
:1035B000580000208C0000208800002000400140BE
:1035C0000010004000440140004801400000434218
:1035D00070000020600000207400002064000020C3
:1035E00078000020680000207C0000206C00002093
:1035F000840000209000002094000020001400406F
:103600005C00002038000020540000201CB501217F
:103610004020FEF796FC40F2C710009000208DF885
:1036200004008DF8050002208DF807006946154852
:10363000FDF720F91CBD1CB501214820FEF781FCD7
:103640003820009001208DF8040000208DF806003D
:103650008DF8050001208DF8070069460948FDF73F
:1036600009F94FF46040009069460648FDF702F9F9
:1036700038210448FDF77CF94FF460410148FDF71B
:1036800077F91CBD0018024040EA0103024630B53C
:103690009B0710D14FF0013400E008C208C91D1B80
:1036A0009D4315EAC41FF8D013F0FF0102F8011B77
:1036B0000DD01B0AF8E711F8013B002B02F8013B83
:1036C00005D011F8013B002B02F8013BF3D130BDCE
:1036D00010B5431C02E010F8011B71B18107FAD14B
:1036E0004FF0013202C88C1A8C4314EAC211F9D08F
:1036F000C01A0A0603D0C01E10BDC01A10BD0A04AD
:1037000001D0801E10BD0902FCD0401E10BD40EA51
:10371000010370B59B072ED14FF00136042A2AD33E
:1037200008C810C99D1B9D43121F15EAC61517D066
:10373000D8B2E1B2401A50EA056110D198B2A1B2F4
:10374000401A50EA05410AD123F07F4024F07F411E
:10375000401A50EA052102D1180EA0EB146070BD8A
:10376000A342DBD018BA21BA884201D9012070BD2A
:103770004FF0FF3070BD0AB9002070BD10F8013B5A
:1037800011F8014B63B1A3420AD1521E08D010F8C0
:10379000013B11F8014B1BB1A34201D1521EEDD1E7
:1037A000181B70BD704770477047754600F02CF8C5
:1037B000AE4605006946534620F00700854618B01E
:1037C00020B5FCF74FFFBDE820404FF000064FF05A
:1037D00000074FF000084FF0000B21F00701AC4646
:1037E000ACE8C009ACE8C009ACE8C009ACE8C00965
:1037F0008D46704710B50446AFF300802046BDE803
:103800001040FCF71CBD000000487047B8000020C5
:1038100001491820ABBEFEE72600020070474FF0BA
:103820004070E1EE100A70474838000800000020A0
:1038300098000000E8010008E03800089800002027
:10384000800600000402000800A24A0400000000F4
:103850000000000001020304060708090000000040
:103860000000000001020304010203040607080926
:103870000000000000000000000000000000000048
:103880000000000000000000000000000000000038
:103890000000000000000000000000000100000027
:1038A0000100000000000000000000000000000017
:1038B0000000000000000000000000000000000008
:1038C00000000000000000000000000000000000F8
:1038D00000000000000000000000000000000000E8
:04000005080001AD41
:00000001FF
